{
  "_format": "hh-sol-artifact-1",
  "contractName": "HealthRecords",
  "sourceName": "contracts/contracts/HealthRecords.sol",
  "abi": [
    {
      "inputs": [],
      "stateMutability": "nonpayable",
      "type": "constructor"
    },
    {
      "anonymous": false,
      "inputs": [
        {
          "indexed": true,
          "internalType": "address",
          "name": "patient",
          "type": "address"
        },
        {
          "indexed": true,
          "internalType": "address",
          "name": "doctor",
          "type": "address"
        },
        {
          "indexed": false,
          "internalType": "uint256",
          "name": "timestamp",
          "type": "uint256"
        }
      ],
      "name": "DoctorAccessGranted",
      "type": "event"
    },
    {
      "anonymous": false,
      "inputs": [
        {
          "indexed": true,
          "internalType": "address",
          "name": "patient",
          "type": "address"
        },
        {
          "indexed": true,
          "internalType": "address",
          "name": "doctor",
          "type": "address"
        },
        {
          "indexed": false,
          "internalType": "uint256",
          "name": "timestamp",
          "type": "uint256"
        }
      ],
      "name": "DoctorAccessRevoked",
      "type": "event"
    },
    {
      "anonymous": false,
      "inputs": [
        {
          "indexed": true,
          "internalType": "address",
          "name": "doctor",
          "type": "address"
        },
        {
          "indexed": false,
          "internalType": "uint256",
          "name": "timestamp",
          "type": "uint256"
        }
      ],
      "name": "DoctorAuthorized",
      "type": "event"
    },
    {
      "anonymous": false,
      "inputs": [
        {
          "indexed": true,
          "internalType": "address",
          "name": "patient",
          "type": "address"
        },
        {
          "indexed": false,
          "internalType": "string",
          "name": "name",
          "type": "string"
        },
        {
          "indexed": false,
          "internalType": "uint256",
          "name": "timestamp",
          "type": "uint256"
        }
      ],
      "name": "PatientRegistered",
      "type": "event"
    },
    {
      "anonymous": false,
      "inputs": [
        {
          "indexed": true,
          "internalType": "address",
          "name": "patient",
          "type": "address"
        },
        {
          "indexed": false,
          "internalType": "string",
          "name": "name",
          "type": "string"
        },
        {
          "indexed": false,
          "internalType": "uint256",
          "name": "timestamp",
          "type": "uint256"
        }
      ],
      "name": "PatientUpdated",
      "type": "event"
    },
    {
      "anonymous": false,
      "inputs": [
        {
          "indexed": true,
          "internalType": "uint256",
          "name": "recordId",
          "type": "uint256"
        },
        {
          "indexed": true,
          "internalType": "address",
          "name": "patient",
          "type": "address"
        },
        {
          "indexed": true,
          "internalType": "address",
          "name": "doctor",
          "type": "address"
        }
      ],
      "name": "RecordCreated",
      "type": "event"
    },
    {
      "anonymous": false,
      "inputs": [
        {
          "indexed": true,
          "internalType": "uint256",
          "name": "recordId",
          "type": "uint256"
        },
        {
          "indexed": false,
          "internalType": "string",
          "name": "newRecordHash",
          "type": "string"
        }
      ],
      "name": "RecordUpdated",
      "type": "event"
    },
    {
      "inputs": [
        {
          "internalType": "address",
          "name": "",
          "type": "address"
        },
        {
          "internalType": "address",
          "name": "",
          "type": "address"
        }
      ],
      "name": "accessGrantedAt",
      "outputs": [
        {
          "internalType": "uint256",
          "name": "",
          "type": "uint256"
        }
      ],
      "stateMutability": "view",
      "type": "function"
    },
    {
      "inputs": [],
      "name": "admin",
      "outputs": [
        {
          "internalType": "address",
          "name": "",
          "type": "address"
        }
      ],
      "stateMutability": "view",
      "type": "function"
    },
    {
      "inputs": [
        {
          "internalType": "address",
          "name": "_doctor",
          "type": "address"
        }
      ],
      "name": "authorizeDoctor",
      "outputs": [],
      "stateMutability": "nonpayable",
      "type": "function"
    },
    {
      "inputs": [
        {
          "internalType": "address",
          "name": "",
          "type": "address"
        }
      ],
      "name": "authorizedDoctors",
      "outputs": [
        {
          "internalType": "bool",
          "name": "",
          "type": "bool"
        }
      ],
      "stateMutability": "view",
      "type": "function"
    },
    {
      "inputs": [
        {
          "internalType": "address",
          "name": "_patient",
          "type": "address"
        },
        {
          "internalType": "string",
          "name": "_recordHash",
          "type": "string"
        }
      ],
      "name": "createRecord",
      "outputs": [
        {
          "internalType": "uint256",
          "name": "",
          "type": "uint256"
        }
      ],
      "stateMutability": "nonpayable",
      "type": "function"
    },
    {
      "inputs": [
        {
          "internalType": "address",
          "name": "_patient",
          "type": "address"
        }
      ],
      "name": "getAuthorizedDoctors",
      "outputs": [
        {
          "internalType": "address[]",
          "name": "",
          "type": "address[]"
        }
      ],
      "stateMutability": "view",
      "type": "function"
    },
    {
      "inputs": [
        {
          "internalType": "address",
          "name": "_patient",
          "type": "address"
        }
      ],
      "name": "getPatient",
      "outputs": [
        {
          "components": [
            {
              "internalType": "address",
              "name": "patientAddress",
              "type": "address"
            },
            {
              "internalType": "string",
              "name": "name",
              "type": "string"
            },
            {
              "internalType": "uint256",
              "name": "dateOfBirth",
              "type": "uint256"
            },
            {
              "internalType": "string",
              "name": "emergencyProfileHash",
              "type": "string"
            },
            {
              "internalType": "bool",
              "name": "isRegistered",
              "type": "bool"
            },
            {
              "internalType": "uint256",
              "name": "registeredAt",
              "type": "uint256"
            }
          ],
          "internalType": "struct HealthRecords.Patient",
          "name": "",
          "type": "tuple"
        }
      ],
      "stateMutability": "view",
      "type": "function"
    },
    {
      "inputs": [
        {
          "internalType": "address",
          "name": "_patient",
          "type": "address"
        }
      ],
      "name": "getPatientRecords",
      "outputs": [
        {
          "internalType": "uint256[]",
          "name": "",
          "type": "uint256[]"
        }
      ],
      "stateMutability": "view",
      "type": "function"
    },
    {
      "inputs": [
        {
          "internalType": "uint256",
          "name": "_recordId",
          "type": "uint256"
        }
      ],
      "name": "getRecord",
      "outputs": [
        {
          "components": [
            {
              "internalType": "uint256",
              "name": "recordId",
              "type": "uint256"
            },
            {
              "internalType": "address",
              "name": "patient",
              "type": "address"
            },
            {
              "internalType": "address",
              "name": "doctor",
              "type": "address"
            },
            {
              "internalType": "string",
              "name": "recordHash",
              "type": "string"
            },
            {
              "internalType": "uint256",
              "name": "timestamp",
              "type": "uint256"
            },
            {
              "internalType": "bool",
              "name": "isActive",
              "type": "bool"
            }
          ],
          "internalType": "struct HealthRecords.MedicalRecord",
          "name": "",
          "type": "tuple"
        }
      ],
      "stateMutability": "view",
      "type": "function"
    },
    {
      "inputs": [
        {
          "internalType": "address",
          "name": "_doctor",
          "type": "address"
        }
      ],
      "name": "grantDoctorAccess",
      "outputs": [],
      "stateMutability": "nonpayable",
      "type": "function"
    },
    {
      "inputs": [
        {
          "internalType": "address",
          "name": "_patient",
          "type": "address"
        },
        {
          "internalType": "address",
          "name": "_doctor",
          "type": "address"
        }
      ],
      "name": "isDoctorAuthorized",
      "outputs": [
        {
          "internalType": "bool",
          "name": "",
          "type": "bool"
        }
      ],
      "stateMutability": "view",
      "type": "function"
    },
    {
      "inputs": [
        {
          "internalType": "uint256",
          "name": "",
          "type": "uint256"
        }
      ],
      "name": "medicalRecords",
      "outputs": [
        {
          "internalType": "uint256",
          "name": "recordId",
          "type": "uint256"
        },
        {
          "internalType": "address",
          "name": "patient",
          "type": "address"
        },
        {
          "internalType": "address",
          "name": "doctor",
          "type": "address"
        },
        {
          "internalType": "string",
          "name": "recordHash",
          "type": "string"
        },
        {
          "internalType": "uint256",
          "name": "timestamp",
          "type": "uint256"
        },
        {
          "internalType": "bool",
          "name": "isActive",
          "type": "bool"
        }
      ],
      "stateMutability": "view",
      "type": "function"
    },
    {
      "inputs": [
        {
          "internalType": "address",
          "name": "",
          "type": "address"
        },
        {
          "internalType": "address",
          "name": "",
          "type": "address"
        }
      ],
      "name": "patientAuthorizedDoctors",
      "outputs": [
        {
          "internalType": "bool",
          "name": "",
          "type": "bool"
        }
      ],
      "stateMutability": "view",
      "type": "function"
    },
    {
      "inputs": [
        {
          "internalType": "address",
          "name": "",
          "type": "address"
        },
        {
          "internalType": "uint256",
          "name": "",
          "type": "uint256"
        }
      ],
      "name": "patientRecords",
      "outputs": [
        {
          "internalType": "uint256",
          "name": "",
          "type": "uint256"
        }
      ],
      "stateMutability": "view",
      "type": "function"
    },
    {
      "inputs": [
        {
          "internalType": "address",
          "name": "",
          "type": "address"
        }
      ],
      "name": "patients",
      "outputs": [
        {
          "internalType": "address",
          "name": "patientAddress",
          "type": "address"
        },
        {
          "internalType": "string",
          "name": "name",
          "type": "string"
        },
        {
          "internalType": "uint256",
          "name": "dateOfBirth",
          "type": "uint256"
        },
        {
          "internalType": "string",
          "name": "emergencyProfileHash",
          "type": "string"
        },
        {
          "internalType": "bool",
          "name": "isRegistered",
          "type": "bool"
        },
        {
          "internalType": "uint256",
          "name": "registeredAt",
          "type": "uint256"
        }
      ],
      "stateMutability": "view",
      "type": "function"
    },
    {
      "inputs": [],
      "name": "recordCounter",
      "outputs": [
        {
          "internalType": "uint256",
          "name": "",
          "type": "uint256"
        }
      ],
      "stateMutability": "view",
      "type": "function"
    },
    {
      "inputs": [
        {
          "internalType": "string",
          "name": "_name",
          "type": "string"
        },
        {
          "internalType": "uint256",
          "name": "_dateOfBirth",
          "type": "uint256"
        },
        {
          "internalType": "string",
          "name": "_emergencyProfileHash",
          "type": "string"
        }
      ],
      "name": "registerPatient",
      "outputs": [],
      "stateMutability": "nonpayable",
      "type": "function"
    },
    {
      "inputs": [
        {
          "internalType": "address",
          "name": "_doctor",
          "type": "address"
        }
      ],
      "name": "revokeDoctorAccess",
      "outputs": [],
      "stateMutability": "nonpayable",
      "type": "function"
    },
    {
      "inputs": [
        {
          "internalType": "string",
          "name": "_name",
          "type": "string"
        },
        {
          "internalType": "uint256",
          "name": "_dateOfBirth",
          "type": "uint256"
        },
        {
          "internalType": "string",
          "name": "_emergencyProfileHash",
          "type": "string"
        }
      ],
      "name": "updatePatient",
      "outputs": [],
      "stateMutability": "nonpayable",
      "type": "function"
    }
  ],
  "bytecode": "0x608060405234801561001057600080fd5b5033600860006101000a81548173ffffffffffffffffffffffffffffffffffffffff021916908373ffffffffffffffffffffffffffffffffffffffff160217905550612ebb806100616000396000f3fe608060405234801561001057600080fd5b50600436106101215760003560e01c806358c9202c116100ad57806394f0df611161007157806394f0df611461035a578063b1136b1a1461038a578063b5368e20146103ba578063cbf8a64b146103ea578063f851a4401461041a57610121565b806358c9202c1461029f5780637564a13c146102bb5780637599be5d146102f0578063798f136d1461030e57806379a94bd21461032a57610121565b80631d14c36e116100f45780631d14c36e146101d75780631f21a79d146101f35780632d3975f0146102235780633a20aac3146102535780633df95ab81461028357610121565b806303e9e609146101265780630869cfbc1461015657806312e0808f1461018b57806318bd4847146101a7575b600080fd5b610140600480360381019061013b9190611e79565b610438565b60405161014d919061202a565b60405180910390f35b610170600480360381019061016b9190612078565b610635565b6040516101829695949392919061211c565b60405180910390f35b6101a560048036038101906101a09190612078565b6107ae565b005b6101c160048036038101906101bc9190612078565b610b93565b6040516101ce919061223a565b60405180910390f35b6101f160048036038101906101ec9190612391565b610c2a565b005b61020d6004803603810190610208919061241c565b610e3c565b60405161021a9190612478565b60405180910390f35b61023d60048036038101906102389190612078565b6111cb565b60405161024a9190612493565b60405180910390f35b61026d600480360381019061026891906124ae565b6111eb565b60405161027a9190612493565b60405180910390f35b61029d60048036038101906102989190612078565b61121a565b005b6102b960048036038101906102b49190612078565b61146e565b005b6102d560048036038101906102d09190611e79565b611633565b6040516102e7969594939291906124ee565b60405180910390f35b6102f8611744565b6040516103059190612478565b60405180910390f35b61032860048036038101906103239190612391565b61174a565b005b610344600480360381019061033f91906124ae565b611911565b6040516103519190612493565b60405180910390f35b610374600480360381019061036f9190612556565b6119a5565b6040516103819190612478565b60405180910390f35b6103a4600480360381019061039f91906124ae565b6119d6565b6040516103b19190612478565b60405180910390f35b6103d460048036038101906103cf9190612078565b6119fb565b6040516103e19190612626565b60405180910390f35b61040460048036038101906103ff9190612078565b611c8a565b60405161041191906126f7565b60405180910390f35b610422611d57565b60405161042f9190612719565b60405180910390f35b610440611d7d565b6002600083815260200190815260200160002060050160009054906101000a900460ff166104a3576040517f08c379a000000000000000000000000000000000000000000000000000000000815260040161049a90612780565b60405180910390fd5b600260008381526020019081526020016000206040518060c0016040529081600082015481526020016001820160009054906101000a900473ffffffffffffffffffffffffffffffffffffffff1673ffffffffffffffffffffffffffffffffffffffff1673ffffffffffffffffffffffffffffffffffffffff1681526020016002820160009054906101000a900473ffffffffffffffffffffffffffffffffffffffff1673ffffffffffffffffffffffffffffffffffffffff1673ffffffffffffffffffffffffffffffffffffffff168152602001600382018054610587906127cf565b80601f01602080910402602001604051908101604052809291908181526020018280546105b3906127cf565b80156106005780601f106105d557610100808354040283529160200191610600565b820191906000526020600020905b8154815290600101906020018083116105e357829003601f168201915b50505050508152602001600482015481526020016005820160009054906101000a900460ff1615151515815250509050919050565b60006020528060005260406000206000915090508060000160009054906101000a900473ffffffffffffffffffffffffffffffffffffffff169080600101805461067e906127cf565b80601f01602080910402602001604051908101604052809291908181526020018280546106aa906127cf565b80156106f75780601f106106cc576101008083540402835291602001916106f7565b820191906000526020600020905b8154815290600101906020018083116106da57829003601f168201915b505050505090806002015490806003018054610712906127cf565b80601f016020809104026020016040519081016040528092919081815260200182805461073e906127cf565b801561078b5780601f106107605761010080835404028352916020019161078b565b820191906000526020600020905b81548152906001019060200180831161076e57829003601f168201915b5050505050908060040160009054906101000a900460ff16908060050154905086565b6000803373ffffffffffffffffffffffffffffffffffffffff1673ffffffffffffffffffffffffffffffffffffffff16815260200190815260200160002060040160009054906101000a900460ff1661083c576040517f08c379a00000000000000000000000000000000000000000000000000000000081526004016108339061284c565b60405180910390fd5b600073ffffffffffffffffffffffffffffffffffffffff168173ffffffffffffffffffffffffffffffffffffffff16036108ab576040517f08c379a00000000000000000000000000000000000000000000000000000000081526004016108a2906128b8565b60405180910390fd5b600460003373ffffffffffffffffffffffffffffffffffffffff1673ffffffffffffffffffffffffffffffffffffffff16815260200190815260200160002060008273ffffffffffffffffffffffffffffffffffffffff1673ffffffffffffffffffffffffffffffffffffffff16815260200190815260200160002060009054906101000a900460ff1615610975576040517f08c379a000000000000000000000000000000000000000000000000000000000815260040161096c90612924565b60405180910390fd5b6001600460003373ffffffffffffffffffffffffffffffffffffffff1673ffffffffffffffffffffffffffffffffffffffff16815260200190815260200160002060008373ffffffffffffffffffffffffffffffffffffffff1673ffffffffffffffffffffffffffffffffffffffff16815260200190815260200160002060006101000a81548160ff02191690831515021790555042600560003373ffffffffffffffffffffffffffffffffffffffff1673ffffffffffffffffffffffffffffffffffffffff16815260200190815260200160002060008373ffffffffffffffffffffffffffffffffffffffff1673ffffffffffffffffffffffffffffffffffffffff16815260200190815260200160002081905550600660003373ffffffffffffffffffffffffffffffffffffffff1673ffffffffffffffffffffffffffffffffffffffff168152602001908152602001600020819080600181540180825580915050600190039060005260206000200160009091909190916101000a81548173ffffffffffffffffffffffffffffffffffffffff021916908373ffffffffffffffffffffffffffffffffffffffff1602179055508073ffffffffffffffffffffffffffffffffffffffff163373ffffffffffffffffffffffffffffffffffffffff167fe83bc67f85d960ffd20541787e7fb910d9177fa891e389e7f1974cf0526204c542604051610b889190612478565b60405180910390a350565b6060600360008373ffffffffffffffffffffffffffffffffffffffff1673ffffffffffffffffffffffffffffffffffffffff168152602001908152602001600020805480602002602001604051908101604052809291908181526020018280548015610c1e57602002820191906000526020600020905b815481526020019060010190808311610c0a575b50505050509050919050565b6000803373ffffffffffffffffffffffffffffffffffffffff1673ffffffffffffffffffffffffffffffffffffffff16815260200190815260200160002060040160009054906101000a900460ff1615610cb9576040517f08c379a0000000000000000000000000000000000000000000000000000000008152600401610cb090612990565b60405180910390fd5b6040518060c001604052803373ffffffffffffffffffffffffffffffffffffffff168152602001848152602001838152602001828152602001600115158152602001428152506000803373ffffffffffffffffffffffffffffffffffffffff1673ffffffffffffffffffffffffffffffffffffffff16815260200190815260200160002060008201518160000160006101000a81548173ffffffffffffffffffffffffffffffffffffffff021916908373ffffffffffffffffffffffffffffffffffffffff1602179055506020820151816001019081610d999190612b5c565b50604082015181600201556060820151816003019081610db99190612b5c565b5060808201518160040160006101000a81548160ff02191690831515021790555060a082015181600501559050503373ffffffffffffffffffffffffffffffffffffffff167f096f893428730b9f440cde9930f6fbd450ce2d7ac1f2895f0d869da7376a36d18442604051610e2f929190612c2e565b60405180910390a2505050565b60008060008473ffffffffffffffffffffffffffffffffffffffff1673ffffffffffffffffffffffffffffffffffffffff16815260200190815260200160002060040160009054906101000a900460ff16610ecc576040517f08c379a0000000000000000000000000000000000000000000000000000000008152600401610ec390612caa565b60405180910390fd5b600460008473ffffffffffffffffffffffffffffffffffffffff1673ffffffffffffffffffffffffffffffffffffffff16815260200190815260200160002060003373ffffffffffffffffffffffffffffffffffffffff1673ffffffffffffffffffffffffffffffffffffffff16815260200190815260200160002060009054906101000a900460ff16610f95576040517f08c379a0000000000000000000000000000000000000000000000000000000008152600401610f8c90612d16565b60405180910390fd5b60076000815480929190610fa890612d65565b91905055506040518060c0016040528060075481526020018473ffffffffffffffffffffffffffffffffffffffff1681526020013373ffffffffffffffffffffffffffffffffffffffff168152602001838152602001428152602001600115158152506002600060075481526020019081526020016000206000820151816000015560208201518160010160006101000a81548173ffffffffffffffffffffffffffffffffffffffff021916908373ffffffffffffffffffffffffffffffffffffffff16021790555060408201518160020160006101000a81548173ffffffffffffffffffffffffffffffffffffffff021916908373ffffffffffffffffffffffffffffffffffffffff16021790555060608201518160030190816110cd9190612b5c565b506080820151816004015560a08201518160050160006101000a81548160ff021916908315150217905550905050600360008473ffffffffffffffffffffffffffffffffffffffff1673ffffffffffffffffffffffffffffffffffffffff16815260200190815260200160002060075490806001815401808255809150506001900390600052602060002001600090919091909150553373ffffffffffffffffffffffffffffffffffffffff168373ffffffffffffffffffffffffffffffffffffffff166007547f162981e8660ef88d8be76f4d61429c8901ed3da7efbc4d5b833aab72ba8f41ae60405160405180910390a4600754905092915050565b60016020528060005260406000206000915054906101000a900460ff1681565b60046020528160005260406000206020528060005260406000206000915091509054906101000a900460ff1681565b6000803373ffffffffffffffffffffffffffffffffffffffff1673ffffffffffffffffffffffffffffffffffffffff16815260200190815260200160002060040160009054906101000a900460ff166112a8576040517f08c379a000000000000000000000000000000000000000000000000000000000815260040161129f9061284c565b60405180910390fd5b600460003373ffffffffffffffffffffffffffffffffffffffff1673ffffffffffffffffffffffffffffffffffffffff16815260200190815260200160002060008273ffffffffffffffffffffffffffffffffffffffff1673ffffffffffffffffffffffffffffffffffffffff16815260200190815260200160002060009054906101000a900460ff16611371576040517f08c379a000000000000000000000000000000000000000000000000000000000815260040161136890612df9565b60405180910390fd5b6000600460003373ffffffffffffffffffffffffffffffffffffffff1673ffffffffffffffffffffffffffffffffffffffff16815260200190815260200160002060008373ffffffffffffffffffffffffffffffffffffffff1673ffffffffffffffffffffffffffffffffffffffff16815260200190815260200160002060006101000a81548160ff0219169083151502179055508073ffffffffffffffffffffffffffffffffffffffff163373ffffffffffffffffffffffffffffffffffffffff167f78271a348de4cb1cc8a81ca24b50c197b068dfbf6cc2535aecf67feefbb847c4426040516114639190612478565b60405180910390a350565b600860009054906101000a900473ffffffffffffffffffffffffffffffffffffffff1673ffffffffffffffffffffffffffffffffffffffff163373ffffffffffffffffffffffffffffffffffffffff16146114fe576040517f08c379a00000000000000000000000000000000000000000000000000000000081526004016114f590612e65565b60405180910390fd5b600160008273ffffffffffffffffffffffffffffffffffffffff1673ffffffffffffffffffffffffffffffffffffffff16815260200190815260200160002060009054906101000a900460ff161561158b576040517f08c379a000000000000000000000000000000000000000000000000000000000815260040161158290612924565b60405180910390fd5b60018060008373ffffffffffffffffffffffffffffffffffffffff1673ffffffffffffffffffffffffffffffffffffffff16815260200190815260200160002060006101000a81548160ff0219169083151502179055508073ffffffffffffffffffffffffffffffffffffffff167f416c0d057aefc8440eca08f0468e5b2cb04ea818f03921f418a36629c8d12a01426040516116289190612478565b60405180910390a250565b60026020528060005260406000206000915090508060000154908060010160009054906101000a900473ffffffffffffffffffffffffffffffffffffffff16908060020160009054906101000a900473ffffffffffffffffffffffffffffffffffffffff16908060030180546116a8906127cf565b80601f01602080910402602001604051908101604052809291908181526020018280546116d4906127cf565b80156117215780601f106116f657610100808354040283529160200191611721565b820191906000526020600020905b81548152906001019060200180831161170457829003601f168201915b5050505050908060040154908060050160009054906101000a900460ff16905086565b60075481565b6000803373ffffffffffffffffffffffffffffffffffffffff1673ffffffffffffffffffffffffffffffffffffffff16815260200190815260200160002060040160009054906101000a900460ff166117d8576040517f08c379a00000000000000000000000000000000000000000000000000000000081526004016117cf90612caa565b60405180910390fd5b826000803373ffffffffffffffffffffffffffffffffffffffff1673ffffffffffffffffffffffffffffffffffffffff16815260200190815260200160002060010190816118269190612b5c565b50816000803373ffffffffffffffffffffffffffffffffffffffff1673ffffffffffffffffffffffffffffffffffffffff16815260200190815260200160002060020181905550806000803373ffffffffffffffffffffffffffffffffffffffff1673ffffffffffffffffffffffffffffffffffffffff16815260200190815260200160002060030190816118bb9190612b5c565b503373ffffffffffffffffffffffffffffffffffffffff167f474cca1c43e391565f581648e6e8c3b04e9cfb6061f572912446ffd86cb9b79e8442604051611904929190612c2e565b60405180910390a2505050565b6000600460008473ffffffffffffffffffffffffffffffffffffffff1673ffffffffffffffffffffffffffffffffffffffff16815260200190815260200160002060008373ffffffffffffffffffffffffffffffffffffffff1673ffffffffffffffffffffffffffffffffffffffff16815260200190815260200160002060009054906101000a900460ff16905092915050565b600360205281600052604060002081815481106119c157600080fd5b90600052602060002001600091509150505481565b6005602052816000526040600020602052806000526040600020600091509150505481565b611a03611de1565b6000808373ffffffffffffffffffffffffffffffffffffffff1673ffffffffffffffffffffffffffffffffffffffff16815260200190815260200160002060040160009054906101000a900460ff16611a91576040517f08c379a0000000000000000000000000000000000000000000000000000000008152600401611a8890612caa565b60405180910390fd5b6000808373ffffffffffffffffffffffffffffffffffffffff1673ffffffffffffffffffffffffffffffffffffffff1681526020019081526020016000206040518060c00160405290816000820160009054906101000a900473ffffffffffffffffffffffffffffffffffffffff1673ffffffffffffffffffffffffffffffffffffffff1673ffffffffffffffffffffffffffffffffffffffff168152602001600182018054611b40906127cf565b80601f0160208091040260200160405190810160405280929190818152602001828054611b6c906127cf565b8015611bb95780601f10611b8e57610100808354040283529160200191611bb9565b820191906000526020600020905b815481529060010190602001808311611b9c57829003601f168201915b5050505050815260200160028201548152602001600382018054611bdc906127cf565b80601f0160208091040260200160405190810160405280929190818152602001828054611c08906127cf565b8015611c555780601f10611c2a57610100808354040283529160200191611c55565b820191906000526020600020905b815481529060010190602001808311611c3857829003601f168201915b505050505081526020016004820160009054906101000a900460ff161515151581526020016005820154815250509050919050565b6060600660008373ffffffffffffffffffffffffffffffffffffffff1673ffffffffffffffffffffffffffffffffffffffff168152602001908152602001600020805480602002602001604051908101604052809291908181526020018280548015611d4b57602002820191906000526020600020905b8160009054906101000a900473ffffffffffffffffffffffffffffffffffffffff1673ffffffffffffffffffffffffffffffffffffffff1681526020019060010190808311611d01575b50505050509050919050565b600860009054906101000a900473ffffffffffffffffffffffffffffffffffffffff1681565b6040518060c0016040528060008152602001600073ffffffffffffffffffffffffffffffffffffffff168152602001600073ffffffffffffffffffffffffffffffffffffffff16815260200160608152602001600081526020016000151581525090565b6040518060c00160405280600073ffffffffffffffffffffffffffffffffffffffff168152602001606081526020016000815260200160608152602001600015158152602001600081525090565b6000604051905090565b600080fd5b600080fd5b6000819050919050565b611e5681611e43565b8114611e6157600080fd5b50565b600081359050611e7381611e4d565b92915050565b600060208284031215611e8f57611e8e611e39565b5b6000611e9d84828501611e64565b91505092915050565b611eaf81611e43565b82525050565b600073ffffffffffffffffffffffffffffffffffffffff82169050919050565b6000611ee082611eb5565b9050919050565b611ef081611ed5565b82525050565b600081519050919050565b600082825260208201905092915050565b60005b83811015611f30578082015181840152602081019050611f15565b60008484015250505050565b6000601f19601f8301169050919050565b6000611f5882611ef6565b611f628185611f01565b9350611f72818560208601611f12565b611f7b81611f3c565b840191505092915050565b60008115159050919050565b611f9b81611f86565b82525050565b600060c083016000830151611fb96000860182611ea6565b506020830151611fcc6020860182611ee7565b506040830151611fdf6040860182611ee7565b5060608301518482036060860152611ff78282611f4d565b915050608083015161200c6080860182611ea6565b5060a083015161201f60a0860182611f92565b508091505092915050565b600060208201905081810360008301526120448184611fa1565b905092915050565b61205581611ed5565b811461206057600080fd5b50565b6000813590506120728161204c565b92915050565b60006020828403121561208e5761208d611e39565b5b600061209c84828501612063565b91505092915050565b6120ae81611ed5565b82525050565b600082825260208201905092915050565b60006120d082611ef6565b6120da81856120b4565b93506120ea818560208601611f12565b6120f381611f3c565b840191505092915050565b61210781611e43565b82525050565b61211681611f86565b82525050565b600060c08201905061213160008301896120a5565b818103602083015261214381886120c5565b905061215260408301876120fe565b818103606083015261216481866120c5565b9050612173608083018561210d565b61218060a08301846120fe565b979650505050505050565b600081519050919050565b600082825260208201905092915050565b6000819050602082019050919050565b60006121c38383611ea6565b60208301905092915050565b6000602082019050919050565b60006121e78261218b565b6121f18185612196565b93506121fc836121a7565b8060005b8381101561222d57815161221488826121b7565b975061221f836121cf565b925050600181019050612200565b5085935050505092915050565b6000602082019050818103600083015261225481846121dc565b905092915050565b600080fd5b600080fd5b7f4e487b7100000000000000000000000000000000000000000000000000000000600052604160045260246000fd5b61229e82611f3c565b810181811067ffffffffffffffff821117156122bd576122bc612266565b5b80604052505050565b60006122d0611e2f565b90506122dc8282612295565b919050565b600067ffffffffffffffff8211156122fc576122fb612266565b5b61230582611f3c565b9050602081019050919050565b82818337600083830152505050565b600061233461232f846122e1565b6122c6565b9050828152602081018484840111156123505761234f612261565b5b61235b848285612312565b509392505050565b600082601f8301126123785761237761225c565b5b8135612388848260208601612321565b91505092915050565b6000806000606084860312156123aa576123a9611e39565b5b600084013567ffffffffffffffff8111156123c8576123c7611e3e565b5b6123d486828701612363565b93505060206123e586828701611e64565b925050604084013567ffffffffffffffff81111561240657612405611e3e565b5b61241286828701612363565b9150509250925092565b6000806040838503121561243357612432611e39565b5b600061244185828601612063565b925050602083013567ffffffffffffffff81111561246257612461611e3e565b5b61246e85828601612363565b9150509250929050565b600060208201905061248d60008301846120fe565b92915050565b60006020820190506124a8600083018461210d565b92915050565b600080604083850312156124c5576124c4611e39565b5b60006124d385828601612063565b92505060206124e485828601612063565b9150509250929050565b600060c08201905061250360008301896120fe565b61251060208301886120a5565b61251d60408301876120a5565b818103606083015261252f81866120c5565b905061253e60808301856120fe565b61254b60a083018461210d565b979650505050505050565b6000806040838503121561256d5761256c611e39565b5b600061257b85828601612063565b925050602061258c85828601611e64565b9150509250929050565b600060c0830160008301516125ae6000860182611ee7565b50602083015184820360208601526125c68282611f4d565b91505060408301516125db6040860182611ea6565b50606083015184820360608601526125f38282611f4d565b91505060808301516126086080860182611f92565b5060a083015161261b60a0860182611ea6565b508091505092915050565b600060208201905081810360008301526126408184612596565b905092915050565b600081519050919050565b600082825260208201905092915050565b6000819050602082019050919050565b60006126808383611ee7565b60208301905092915050565b6000602082019050919050565b60006126a482612648565b6126ae8185612653565b93506126b983612664565b8060005b838110156126ea5781516126d18882612674565b97506126dc8361268c565b9250506001810190506126bd565b5085935050505092915050565b600060208201905081810360008301526127118184612699565b905092915050565b600060208201905061272e60008301846120a5565b92915050565b7f5265636f726420646f6573206e6f742065786973740000000000000000000000600082015250565b600061276a6015836120b4565b915061277582612734565b602082019050919050565b600060208201905081810360008301526127998161275d565b9050919050565b7f4e487b7100000000000000000000000000000000000000000000000000000000600052602260045260246000fd5b600060028204905060018216806127e757607f821691505b6020821081036127fa576127f96127a0565b5b50919050565b7f4f6e6c7920726567697374657265642070617469656e74730000000000000000600082015250565b60006128366018836120b4565b915061284182612800565b602082019050919050565b6000602082019050818103600083015261286581612829565b9050919050565b7f496e76616c696420646f63746f72206164647265737300000000000000000000600082015250565b60006128a26016836120b4565b91506128ad8261286c565b602082019050919050565b600060208201905081810360008301526128d181612895565b9050919050565b7f446f63746f7220616c726561647920617574686f72697a656400000000000000600082015250565b600061290e6019836120b4565b9150612919826128d8565b602082019050919050565b6000602082019050818103600083015261293d81612901565b9050919050565b7f50617469656e7420616c72656164792072656769737465726564000000000000600082015250565b600061297a601a836120b4565b915061298582612944565b602082019050919050565b600060208201905081810360008301526129a98161296d565b9050919050565b60008190508160005260206000209050919050565b60006020601f8301049050919050565b600082821b905092915050565b600060088302612a127fffffffffffffffffffffffffffffffffffffffffffffffffffffffffffffffff826129d5565b612a1c86836129d5565b95508019841693508086168417925050509392505050565b6000819050919050565b6000612a59612a54612a4f84611e43565b612a34565b611e43565b9050919050565b6000819050919050565b612a7383612a3e565b612a87612a7f82612a60565b8484546129e2565b825550505050565b600090565b612a9c612a8f565b612aa7818484612a6a565b505050565b5b81811015612acb57612ac0600082612a94565b600181019050612aad565b5050565b601f821115612b1057612ae1816129b0565b612aea846129c5565b81016020851015612af9578190505b612b0d612b05856129c5565b830182612aac565b50505b505050565b600082821c905092915050565b6000612b3360001984600802612b15565b1980831691505092915050565b6000612b4c8383612b22565b9150826002028217905092915050565b612b6582611ef6565b67ffffffffffffffff811115612b7e57612b7d612266565b5b612b8882546127cf565b612b93828285612acf565b600060209050601f831160018114612bc65760008415612bb4578287015190505b612bbe8582612b40565b865550612c26565b601f198416612bd4866129b0565b60005b82811015612bfc57848901518255600182019150602085019450602081019050612bd7565b86831015612c195784890151612c15601f891682612b22565b8355505b6001600288020188555050505b505050505050565b60006040820190508181036000830152612c4881856120c5565b9050612c5760208301846120fe565b9392505050565b7f50617469656e74206e6f74207265676973746572656400000000000000000000600082015250565b6000612c946016836120b4565b9150612c9f82612c5e565b602082019050919050565b60006020820190508181036000830152612cc381612c87565b9050919050565b7f4e6f7420617574686f72697a65642062792070617469656e7400000000000000600082015250565b6000612d006019836120b4565b9150612d0b82612cca565b602082019050919050565b60006020820190508181036000830152612d2f81612cf3565b9050919050565b7f4e487b7100000000000000000000000000000000000000000000000000000000600052601160045260246000fd5b6000612d7082611e43565b91507fffffffffffffffffffffffffffffffffffffffffffffffffffffffffffffffff8203612da257612da1612d36565b5b600182019050919050565b7f446f63746f72206e6f7420617574686f72697a65640000000000000000000000600082015250565b6000612de36015836120b4565b9150612dee82612dad565b602082019050919050565b60006020820190508181036000830152612e1281612dd6565b9050919050565b7f4f6e6c792061646d696e2063616e2063616c6c20746869730000000000000000600082015250565b6000612e4f6018836120b4565b9150612e5a82612e19565b602082019050919050565b60006020820190508181036000830152612e7e81612e42565b905091905056fea2646970667358221220d1bc1cbb56097c19db0fecff26b7b777f63cf9b05e89c88a53d41a1261d1c64f64736f6c63430008180033",
  "linkReferences": {},
  "deployedLinkReferences": {}
}